:060000000A128A110C280F
:10000800FE00030EF1000A08F2000A128A11D12834
:100018000A128A110F2883010A128A11A028F800EF
:10002800781817281B28831603139F171E28831672
:1000380003139F13731821282528831603131F16EB
:100048002828831603131F1273182B282F288316AA
:1000580003139F163228831603139F124B283F3031
:10006800831203139F056128831203131F083F3966
:1000780040389F006128831203131F083F398038D6
:100088009F006128C030831203139F0461287408FD
:10009800F600F7017708003A031953286128760813
:1000A800013A03193328053A031938280C3A031979
:1000B8003F281C3A0319462861287508F600F60DF2
:1000C800F60D83121F087606C33976069F001F14A3
:1000D800080021308316031385008312031385015A
:1000E80001308316031788008901831603138601DC
:1000F8008312031386017030831603138F040F14C1
:10010800F3010830F400F50100300A128A111320B7
:100118000A128A118B170B17831603138C15831277
:1001280003138C11F301F401F50124300A128A112A
:10013800BB200A128A1108000A128A116D200A12BD
:100148008A110D30FA00FB30F900F90BA928FA0BD7
:10015800A928AE280A128A11E7200A128A117408FF
:10016800831203138600A5280A128A110C28F600A8
:10017800831603138712761DC228C328C72875085B
:1001880094008715CB2873087504940087117608A6
:1001980074048312031394000800831203138C1D44
:1001A800D628D728E02806080A128A11F5200A124C
:1001B8008A11831203138C1172088A00710E83004E
:1001C800FE0E7E0E0900831203139F149F18ED285C
:1001D800EE28EA281E08F400831603131E08F3000D
:0E01E8000800F0007008831203139300080053
:04400E00D420FF3F7C
:00000001FF
