:060000000A128A110C280F
:10000800FE00030EF1000A08F2000A128A111328F2
:100018000A128A110F2883010A128A114E288312A4
:1000280003138C1D182819282A280A128A118720D8
:100038000A128A1183120313880006080A128A1109
:100048009E200A128A11831203138C1172088A00E7
:10005800710E8300FE0E7E0E0900831603178801B9
:1000680089018316031385018312031385017030F8
:10007800831603138F040F14071183120313071138
:10008800F301F401F50120300A128A1168200A12DE
:100098008A1108000A128A1131200A128A111A30AC
:1000A800F800F830F700F70B5728F80B572800002E
:1000B8000A128A117E200A128A11831203138500FC
:1000C80053280A128A110C28F60083160313871284
:1000D800761D6F287028742875089400871578286D
:1000E8007308750494008711760874048312031347
:1000F800940008000A128A1190200A128A118312A9
:100108000313130808000A128A1197200A128A1189
:10011800831203131308080083160313141C95286D
:1001280096289028080083160313141C9C289D28E1
:1001380097280800F0007008831203139300080042
:04400E00D430FF3F6C
:00000001FF
