:060000000A128A110C280F
:10000800FE00030EF1000A08F2000A128A11A02865
:100018000A128A110F2883010A128A11BD28F800D2
:10002800781817281B28831603139F171E28831672
:1000380003139F13731821282528831603131F16EB
:100048002828831603131F1273182B282F288316AA
:1000580003139F163228831603139F124B283F3031
:10006800831203139F056128831203131F083F3966
:1000780040389F006128831203131F083F398038D6
:100088009F006128C030831203139F0461287408FD
:10009800F600F7017708003A031953286128760813
:1000A800013A03193328053A031938280C3A031979
:1000B8003F281C3A0319462861287508F600F60DF2
:1000C800F60D83121F087606C33976069F001F14A3
:1000D800080021308316031385008312031385015A
:1000E80001308316031788008901831603138601DC
:1000F8008312031386017030831603138F040F14C1
:10010800F3010830F400F50100300A128A111320B7
:100118000A128A118B170B17831603138C15831277
:1001280003138C11F301F401F50124300A128A112A
:10013800D8200A128A110800831203138C1DA528DF
:10014800A628B6280A128A11FC200A128A118312DC
:10015800031306080A128A110C210A128A11831243
:1001680003138C1172088A00710E8300FE0E7E0E36
:1001780009000A128A116D200A128A110D30FA003C
:10018800FB30F900F90BC628FA0BC628CB280A124F
:100198008A11EE200A128A1174088312031386004A
:1001A800C2280A128A110C28F60083160313871234
:1001B800761DDF28E028E428750894008715E828CC
:1001C8007308750494008711760874048312031366
:1001D80094000800831203139F149F18F428F5282D
:1001E800F1281E08F400831603131E08F300080004
:1001F8000A128A1105210A128A118312031313089D
:10020800080083160313141C0A290B290529080062
:0C021800F000700883120313930008002C
:04400E00D420FF3F7C
:00000001FF
