:060000000A128A110E280D
:10000800FE00030EF1000A08F2007F08F3000A124E
:100018008A116A280A128A111128F801F901830144
:100028000A128A11E628F70077181B281F2883165A
:1000380003139F172228831603139F137418252868
:100048002928831603131F162C28831603131F123F
:1000580074182F283328831603139F1636288316FF
:1000680003139F1247283F309F055F281F083F3919
:1000780040389F005F281F083F3980389F005F285D
:10008800C0309F045F28750883120313A000A101E4
:100098002108003A031951285F282008013A03195A
:1000A8003728053A03193A280C3A03193F281C3A0D
:1000B800031944285F287608A000A00DA00D1F088A
:1000C8002006C33920069F001F140800831203135B
:1000D8008C1D6F2870288F281308F8005030780678
:1000E800031D772878287E2879080A128A11372173
:1000F8000A128A1143307806031D832884288C2825
:100108008312031308080A128A1137210A128A1166
:10011800831203138C110B1C92289328A22806180B
:10012800962897289B280130FF007F0888078618A3
:100138009E289F28A128013088020B107308FF0011
:1001480072088A00710E8300FE0E7E0E09002130AF
:100158008316031385008312031385010130831668
:100168000317880089018316031388018312031378
:100178008801FF3083160313860070308F040F1434
:10018800F4010830F500F60100300A128A11172030
:100198000A128A1103300A128A1116210A128A11C8
:1001A8008B170B17831603138C15831203138C11EB
:1001B800F401F501F60124300A128A1100210A120D
:1001C8008A1108000A128A11AB200A128A110D300E
:1001D80083120313A300FB30A200A20BF128A30B88
:1001E800F1280A128A1129210A128A117508F900C0
:1001F800EB280A128A110E28F700831603138712B8
:10020800771D072908290C297608940087151029D5
:100218007408760494008711770875048312031311
:1002280094000800F4007408FF007F088316031385
:10023800860481137408FF007F0895058B157408E0
:10024800FF007F0896048B170800831203139F147E
:100258009F182F2930292C291E08F500831603130F
:100268001E08F4000800F0007008831203139300BE
:0202780008007C
:04400E00D420FF3F7C
:00000001FF
