:060000000A128A110E280D
:10000800FE00030EF1000A08F2007F08F3000A124E
:100018008A11E1280A128A111128F701F801F90159
:1000280083010A128A11A82883120313A200221836
:100038001E282228831603139F17252883160313C7
:100048009F13741828282C28831603131F162F288B
:10005800831603131F1274183228362883160313C5
:100068009F163928831603139F124A283F309F058D
:1000780062281F083F3940389F0062281F083F390F
:1000880080389F006228C0309F0462287508831258
:100098000313A000A1012108003A0319542862287B
:1000A8002008013A03193A28053A03193D280C3A61
:1000B800031942281C3A0319472862287608A00029
:1000C800A00DA00D1F082006C33920069F001F148D
:1000D800080021308316031385008312031385015A
:1000E80001308316031788008901831603138801DA
:1000F800831203138801FF308316031386007030C0
:100108008F040F14F4010830F500F60100300A12CC
:100118008A1118200A128A1103300A128A112C2116
:100128000A128A118B170B17831603138C15831267
:1001380003138C11F401F501F60124300A128A1117
:100148000E210A128A1108000A128A116D200A1259
:100158008A110D3083120313A400FB30A300A30BF4
:10016800B328A40BB3280A128A113F210A128A1154
:100178007508F900CC287908F700AD280808F700B9
:10018800AD2800300A128A114D210A128A11AD28B1
:10019800780883120313A300A4012408003A031962
:1001A800D628C5282308433A0319C228133A031945
:1001B800BF28C5280A128A110E28831203138C1D22
:1001C800E628E728F2281308F80077080A128A11A7
:1001D80053210A128A11831203138C110B1CF52860
:1001E800F62805290618F928FA28FE280130FF0004
:1001F8007F08880786180129022904290130880206
:100208000B107308FF0072088A00710E8300FE0E3F
:100218007E0E090083120313A000831603138712AE
:1002280083120313201D19291A29202976088316F9
:10023800031394008715262974087604831603137C
:100248009400871183120313200875049400080092
:10025800F4007408FF007F088316031386048113D3
:100268007408FF007F0895058B157408FF007F0848
:1002780096048B170800831203139F149F184529AF
:10028800462942291E08F500831603131E08F400A8
:100298000800F40074088312031393000800F000A8
:0A02A800700883120313930008008E
:04400E00D420FF3F7C
:00000001FF
