:060000000A128A110C280F
:10000800FE00030EF0000A08F1000A128A11ED2B17
:100018000A128A110F28FA01FB0183120313A001A7
:10002800A101A201A301A401A501A601A701A8019C
:10003800A901AA01AB01AC0183010A128A11CA2BDA
:1000480083120313B4000A30F2000030F3003408BE
:10005800AE00AF012E08F4002F08F5000A128A112D
:100068000A210A128A11720883120313B5000A3092
:10007800F2000030F3003408AE00AF012E08F4009F
:100088002F08F5000A128A11CE210A128A11720865
:1000980083120313B3000A30F2000030F30035086E
:1000A800AE00AF012E08F4002F08F5000A128A11DD
:1000B8000A210A128A11720883120313B0000A3047
:1000C800F2000030F3003508AE00AF012E08F4004E
:1000D8002F08F5000A128A11CE210A128A11720815
:1000E80083120313B2000A30F2000030F300300824
:1000F800AE00AF012E08F4002F08F5000A128A118D
:10010800CE210A128A11720883120313B1002D0836
:10011800023E84003308303E831380002D0A840099
:100128003208303E80002D0884003108303E8000BF
:100138000800293083120313AD007B080A128A11C4
:1001480024200A128A11253083120313AD007A087D
:100158000A128A1124200A128A11213083120313E9
:10016800AD0020080A128A1124200A128A11F60109
:10017800F60A01300A128A1127220A128A1101305E
:10018800F7008030F8000A128A11BD220A128A117B
:100198002930F7000030F8000A128A11BD220A122D
:1001A8008A11F601F60A02300A128A1127220A1267
:1001B8008A110630F7008030F8000A128A11BD2231
:1001C8000A128A112530F7000030F8000A128A1145
:1001D800BD220A128A110B30F60001300A128A1168
:1001E80027220A128A110B30F7008030F8000A1211
:1001F8008A11BD220A128A112130F7000030F80056
:100208000A128A11BD220A128A110800F701F31F87
:100218000E290F291629F209F309F20A0319F30A1C
:10022800F701F70AF51F19291A292329F409F509ED
:10023800F40A0319F50A0130FF007F08F706F801F0
:10024800F9017208730403192A292B296229F60176
:10025800F60A392901300310F20DF30DFF3E031D94
:100268002F290130FF007F08F607F31F3C293D299D
:100278002E2901300310F80DF90DFF3E031D3E290C
:1002880073087502031D4A2972087402031C4D295C
:100298004E2955297208F4027308031CF503F50268
:1002A800781401300310F30CF20CFF3E031D56299D
:1002B8000130F602031D612962293D2977080319D7
:1002C800662967296C29F809F909F80A0319F90A4E
:1002D8007908F3007808F200080000300A128A1141
:1002E8005A230A128A113430F700F130F600F60B5F
:1002F8007B29F70B7B29802903300A128A119A235C
:100308000A128A110D30F700FB30F600F60B8A2925
:10031800F70B8A298F2903300A128A119A230A12A5
:100328008A111D30F7009130F600F60B9929F70B6A
:10033800992903300A128A119A230A128A11023063
:100348000A128A119A230A128A1102300A128A1191
:100358009A230A128A1108300A128A119A230A1259
:100368008A1100300A128A119A230A128A110C3053
:100378000A128A119A230A128A1100300A128A1163
:100388009A230A128A1106300A128A119A230A122B
:100398008A110800F701F51FD229D329DA29F409AF
:1003A800F509F40A0319F50AF701F70AF31FDD291D
:1003B800DE29E329F209F309F20A0319F30A72089C
:1003C80073040319E829E929182AF601F60AF72916
:1003D80001300310F20DF30DFF3E031DED2901302E
:1003E800FF007F08F607F31FFA29FB29EC29730899
:1003F8007502031D012A72087402031C042A052AC7
:100408000B2A7208F4027308031CF503F502013085
:100418000310F30CF20CFF3E031D0C2A0130F60208
:10042800031D172A182AFB29770803191C2A1D2AD5
:10043800222AF409F509F40A0319F50A7508F300E4
:100448007408F200080083120313AD002D03031D86
:100458002E2A2F2A4E2A76087F3EB0003008F70051
:1004680004300310F70CFF3E031D352A7708AE0051
:1004780030080F39AF002E080A128A119A230A127F
:100488008A11831203132F080A128A119A230A1257
:100498008A11722A02302D06031D532A542A722A01
:1004A8007608BF3EB0003008F70004300310F70CA0
:1004B800FF3E031D5A2A7708AE0030080F39AF00F7
:1004C8002E080A128A119A230A128A118312031318
:1004D8002F080A128A119A230A128A110800831215
:1004E80003138714071050300A128A11F4230A12D2
:1004F8008A111A30F400F830F300F30B812AF40B58
:10050800812A00000A128A11DD230A128A11FB00CF
:10051800831203130714871050300A128A11F42328
:100528000A128A111A30F400F830F300F30B9A2AF1
:10053800F40B9A2A00000A128A11DD230A128A1182
:10054800FA0043300A128A11F4230A128A111A3067
:10055800F400F830F300F30BAF2AF40BAF2A0000D5
:100568000A128A11DD230A128A1183120313A000CA
:10057800080083120313B001B101E62A3008770797
:10058800AE007808AD000318AD0AB01FCC2AAD0341
:10059800831203132D08AF002F08FF002E088400D4
:1005A8000A128A117C230A128A110A128A11032359
:1005B8000A128A11013083120313B0070318B10A13
:1005C8000030B10730087707AE007808AD0003188F
:1005D800AD0AB01FF02AAD03831203132D08AF0034
:1005E8002F08FF002E0884000A128A117C230A12A1
:1005F8008A11003A031D012B022BC22A0800F600BB
:1006080076080F39F4007608F039F50083120313E1
:1006180008157508F30004300310F30CFF3E031DA2
:10062800102B73080A128A115A230A128A1183128C
:10063800031388151A30F300F30B202B00008312E4
:100648000313881174080A128A115A230A128A118C
:100658008312031388151A30F300F30B312B0000B3
:100668008312031388110800831603178801890170
:1006780083160313880183120313880170308316CD
:1006880003138F040F140A128A1171210A128A1196
:10069800D430831603138700F201F301F4012030EC
:1006A8000A128A11B4230A128A110800F200721C75
:1006B8005E2B5F2B632B831203130816662B8312A2
:1006C80003130812F21C692B6A2B6C2B88166D2BEE
:1006D8008812721D702B712B732B0817742B08133B
:1006E800F21D772B782B7A2B88177B2B8813080021
:1006F800FF1B862B83137F1883170008840A0319AE
:10070800FF0A080003308A000408840A82070034BC
:10071800503430343A3420340034503431343A349C
:100728002034003443343A3420340034F500831242
:100738000313081175080A128A115A230A128A111A
:100748008312031388150B30F4006230F300F30BA7
:10075800AB2BF40BAB2B000083120313881108009A
:10076800F500831603138712751DBB2BBC2BC02BFA
:10077800740894008715C42B7208740494008711B8
:100788007508730483120313940008000A128A116F
:1007980038230A128A110A128A1173220A128A113C
:1007A8000A128A119D200A128A11CF2B0A128A1165
:1007B8000C280A128A11E6230A128A1183120313DB
:1007C8001308080083160313141CEB2BEC2BE62BE1
:1007D800080071088A00700E8300FE0E7E0E090064
:0C07E800F2007208831203139300080053
:04400E00D420FF3F7C
:00000001FF
