:060000000A128A110C280F
:10000800FE00030EF0000A08F1000A128A11F12B13
:100018000A128A110F28FA01FB0183120313A001A7
:10002800A101A201A301A401A501A601A701A8019C
:10003800A901AA01AB01AC01AD01AE0183010A120D
:100048008A11CE2B83120313B6000A30F200003057
:10005800F3003608B000B1013008F4003108F500AB
:100068000A128A110C210A128A11720883120313C8
:10007800B7000A30F2000030F3003608B000B101D2
:100088003008F4003108F5000A128A11D0210A124A
:100098008A11720883120313B5000A30F200003087
:1000A800F3003708B000B1013008F4003108F5005A
:1000B8000A128A110C210A128A1172088312031378
:1000C800B2000A30F2000030F3003708B000B10186
:1000D8003008F4003108F5000A128A11D0210A12FA
:1000E8008A11720883120313B4000A30F200003038
:1000F800F3003208B000B1013008F4003108F5000F
:100108000A128A11D0210A128A1172088312031363
:10011800B3002F08023E84003508303E8313800068
:100128002F0A84003408303E80002F0884003308EA
:10013800303E800008002B3083120313AF007B0889
:100148000A128A1126200A128A11273083120313F1
:10015800AF007A080A128A1126200A128A1123305F
:1001680083120313AF0022080A128A1126200A12EA
:100178008A11F601F60A01300A128A1175220A124A
:100188008A110130F7008030F8000A128A11C12262
:100198000A128A112B30F7000030F8000A128A116F
:1001A800C1220A128A11F601F60A02300A128A11CD
:1001B80075220A128A110630F7008030F8000A12F8
:1001C8008A11C1220A128A112730F7000030F8007C
:1001D8000A128A11C1220A128A110B30F600013064
:1001E8000A128A1175220A128A110B30F700803020
:1001F800F8000A128A11C1220A128A112330F70064
:100208000030F8000A128A11C1220A128A11080065
:10021800F701F31F102911291829F209F309F20A25
:100228000319F30AF701F70AF51F1B291C292529C9
:10023800F409F509F40A0319F50A0130FF007F08EB
:10024800F706F801F9017208730403192C292D29FE
:100258006429F601F60A3B2901300310F20DF30D6B
:10026800FF3E031D31290130FF007F08F607F31F09
:100278003E293F29302901300310F80DF90DFF3EC2
:10028800031D402973087502031D4C297208740266
:10029800031C4F29502957297208F4027308031CBC
:1002A800F503F502781401300310F30CF20CFF3E4D
:1002B800031D58290130F602031D632964293F29CB
:1002C80077080319682969296E29F809F909F80ACC
:1002D8000319F90A7908F3007808F20008000030D9
:1002E8000A128A115E230A128A113430F700F1309B
:1002F800F600F60B7D29F70B7D29822903300A12B7
:100308008A119E230A128A110D30F700FB30F6007D
:10031800F60B8C29F70B8C29912903300A128A11C4
:100328009E230A128A111D30F7009130F600F60B51
:100338009B29F70B9B2903300A128A119E230A1264
:100348008A1102300A128A119E230A128A11023077
:100358000A128A119E230A128A1108300A128A1177
:100368009E230A128A1100300A128A119E230A1249
:100378008A110C300A128A119E230A128A1100303F
:100388000A128A119E230A128A1106300A128A1149
:100398009E230A128A110800F701F51FD429D529CE
:1003A800DC29F409F509F40A0319F50AF701F70A33
:1003B800F31FDF29E029E529F209F309F20A0319F5
:1003C800F30A720873040319EA29EB291A2AF601B9
:1003D800F60AF92901300310F20DF30DFF3E031D53
:1003E800EF290130FF007F08F607F31FFC29FD29DC
:1003F800EE2973087502031D032A72087402031C90
:10040800062A072A0D2A7208F4027308031CF5034A
:10041800F50201300310F30CF20CFF3E031D0E2A07
:100428000130F602031D192A1A2AFD297708031933
:100438001E2A1F2A242AF409F509F40A0319F50AC1
:100448007508F3007408F200080083120313871478
:10045800071050300A128A11F8230A128A110A1258
:100468008A11E1230A128A11FB000330F400973045
:10047800F300F30B3D2AF40B3D2A422A831203139F
:10048800071487102008210403194B2A4C2A592ADB
:1004980050300A128A11F8230A128A110A128A1194
:1004A800E1230A128A11FA00672A43300A128A11D4
:1004B800F8230A128A110A128A11E1230A128A11F0
:1004C80083120313A20083120313A009A1090330A6
:1004D800F4009730F300F30B6F2AF40B6F2A742A99
:1004E800080083120313AF002F03031D7C2A7D2A03
:1004F8009C2A76087F3EB2003208F70004300310C9
:10050800F70CFF3E031D832A7708B00032080F3925
:10051800B10030080A128A119E230A128A11831226
:10052800031331080A128A119E230A128A11C02A5B
:1005380002302F06031DA12AA22AC02A7608BF3E30
:10054800B2003208F70004300310F70CFF3E031D19
:10055800A82A7708B00032080F39B10030080A120B
:100568008A119E230A128A118312031331080A1270
:100578008A119E230A128A11080083120313B201FA
:10058800B301EA2A32087707B0007808AF000318E9
:10059800AF0AB21FD02AAF03831203132F08B1008A
:1005A8003108FF00300884000A128A1180230A12D9
:1005B8008A110A128A1107230A128A11013083123A
:1005C8000313B2070318B30A0030B30732087707DA
:1005D800B0007808AF000318AF0AB21FF42AAF03BF
:1005E800831203132F08B1003108FF00300884007C
:1005F8000A128A1180230A128A11003A031D052B58
:10060800062BC62A0800F60076080F39F40076088B
:10061800F039F5008312031308157508F300043048
:100628000310F30CFF3E031D142B73080A128A11E2
:100638005E230A128A118312031388151A30F300F5
:10064800F30B242B000083120313881174080A1279
:100658008A115E230A128A118312031388151A302D
:10066800F300F30B352B00008312031388110800E5
:1006780083160317880189018316031388018312DF
:10068800031388017030831603138F040F140A12A2
:100698008A1173210A128A11D43083160313870032
:1006A800F201F301F40120300A128A11B8230A1268
:1006B8008A110800F200721C622B632B672B8312CD
:1006C800031308166A2B831203130812F21C6D2BEE
:1006D8006E2B702B8816712B8812721D742B752B3C
:1006E800772B0817782B0813F21D7B2B7C2B7E2B7E
:1006F80088177F2B88130800FF1B8A2B83137F180A
:1007080083170008840A0319FF0A080003308A00C7
:100718000408840A82070034503430343A342034D0
:100728000034503431343A342034003443343A34C9
:1007380020340034F50083120313081175080A12D7
:100748008A115E230A128A118312031388150B304B
:10075800F4006230F300F30BAF2BF40BAF2B000067
:100768008312031388110800F500831603138712F8
:10077800751DBF2BC02BC42B740894008715C82B7C
:1007880072087404940087117508730483120313A4
:10079800940008000A128A113C230A128A110A12CC
:1007A8008A1129220A128A110A128A119F200A1212
:1007B8008A11D32B0A128A110C280A128A11EA23E9
:1007C8000A128A11831203131308080083160313ED
:1007D800141CEF2BF02BEA2B080071088A00700E0E
:1007E8008300FE0E7E0E0900F200720883120313C6
:0407F8009300080062
:04400E00D420FF3F7C
:00000001FF
