:060000000A128A110C280F
:10000800FE00030EF0000A08F1000A128A1189287E
:100018000A128A110F2883010A128A1113280A1258
:100028008A1152200A128A110330F7009730F6001D
:10003800F60B1C28F70B1C2821288312031387149E
:10004800071061300A128A11A7200A128A110A12AF
:100058008A1197200A128A1183120313850003302C
:10006800F7009730F600F60B3728F70B37283C28AF
:10007800831203130714871061300A128A11A7200C
:100088000A128A110A128A1197200A128A118312F7
:100098000313860018280A128A110C2883160317DE
:1000A80088018901831603138501831203138501CF
:1000B8008316031386018312031386017030831697
:1000C80003138F040F1410308700F201F301F401B9
:1000D80020300A128A1173200A128A110800F500CA
:1000E800831603138712751D7A287B287F287408C6
:1000F8009400871583287208740494008711750882
:1001080073048312031394000800831203138C1DD5
:100118008E288F2890288C1171088A00700E830011
:10012800FE0E7E0E09000A128A11A0200A128A11F8
:10013800831203131308080083160313141CA5283D
:10014800A628A0280800F20072088312031393005F
:0201580008009D
:04400E00D420FF3F7C
:00000001FF
